{
  "_format": "hh-sol-artifact-1",
  "contractName": "BalancerV2Sampler",
  "sourceName": "contracts/sampler/BalancerV2Sampler.sol",
  "abi": [
    {
      "inputs": [
        {
          "components": [
            {
              "internalType": "bytes32",
              "name": "poolId",
              "type": "bytes32"
            },
            {
              "internalType": "address",
              "name": "vault",
              "type": "address"
            }
          ],
          "internalType": "struct BalancerV2Sampler.BalancerV2PoolInfo",
          "name": "poolInfo",
          "type": "tuple"
        },
        {
          "internalType": "address",
          "name": "takerToken",
          "type": "address"
        },
        {
          "internalType": "address",
          "name": "makerToken",
          "type": "address"
        },
        {
          "internalType": "uint256[]",
          "name": "makerTokenAmounts",
          "type": "uint256[]"
        }
      ],
      "name": "sampleBuysFromBalancerV2",
      "outputs": [
        {
          "internalType": "uint256[]",
          "name": "takerTokenAmounts",
          "type": "uint256[]"
        }
      ],
      "stateMutability": "nonpayable",
      "type": "function"
    },
    {
      "inputs": [
        {
          "components": [
            {
              "internalType": "bytes32",
              "name": "poolId",
              "type": "bytes32"
            },
            {
              "internalType": "address",
              "name": "vault",
              "type": "address"
            }
          ],
          "internalType": "struct BalancerV2Sampler.BalancerV2PoolInfo",
          "name": "poolInfo",
          "type": "tuple"
        },
        {
          "internalType": "address",
          "name": "takerToken",
          "type": "address"
        },
        {
          "internalType": "address",
          "name": "makerToken",
          "type": "address"
        },
        {
          "internalType": "uint256[]",
          "name": "takerTokenAmounts",
          "type": "uint256[]"
        }
      ],
      "name": "sampleSellsFromBalancerV2",
      "outputs": [
        {
          "internalType": "uint256[]",
          "name": "makerTokenAmounts",
          "type": "uint256[]"
        }
      ],
      "stateMutability": "nonpayable",
      "type": "function"
    }
  ],
  "bytecode": "0x608060405234801561001057600080fd5b50610c10806100206000396000f3fe608060405234801561001057600080fd5b50600436106100365760003560e01c80632339078f1461003b578063a0295b8b14610064575b600080fd5b61004e6100493660046107b6565b610077565b60405161005b919061091a565b60405180910390f35b61004e6100723660046107b6565b610321565b60606100838385610597565b60208501516040805160028082526060820190925260009181602001602082028036833701905050905085816000815181106100cf57634e487b7160e01b600052603260045260246000fd5b60200260200101906001600160a01b031690816001600160a01b031681525050848160018151811061011157634e487b7160e01b600052603260045260246000fd5b6001600160a01b039092166020928302919091019091015283518067ffffffffffffffff81111561015257634e487b7160e01b600052604160045260246000fd5b60405190808252806020026020018201604052801561017b578160200160208202803683370190505b50935060006101886105d6565b905060005b828110156103145760006101c88b8984815181106101bb57634e487b7160e01b600052603260045260246000fd5b6020026020010151610605565b604051637c26833760e11b81529091506001600160a01b0387169063f84d066e906101fe9060009085908a90899060040161095e565b600060405180830381600087803b15801561021857600080fd5b505af192505050801561024d57506040513d6000823e601f3d908101601f1916820160405261024a9190810190610721565b60015b610288573d80801561027b576040519150601f19603f3d011682016040523d82523d6000602084013e610280565b606091505b505050610314565b6000816001815181106102ab57634e487b7160e01b600052603260045260246000fd5b60200260200101516000196102c09190610b10565b9050600081136102d257505050610314565b808985815181106102f357634e487b7160e01b600052603260045260246000fd5b6020026020010181815250505050508061030c81610b93565b91505061018d565b5050505050949350505050565b606061032d8385610597565b602085015160408051600280825260608201909252600091816020016020820280368337019050509050858160008151811061037957634e487b7160e01b600052603260045260246000fd5b60200260200101906001600160a01b031690816001600160a01b03168152505084816001815181106103bb57634e487b7160e01b600052603260045260246000fd5b6001600160a01b039092166020928302919091019091015283518067ffffffffffffffff8111156103fc57634e487b7160e01b600052604160045260246000fd5b604051908082528060200260200182016040528015610425578160200160208202803683370190505b50935060006104326105d6565b905060005b828110156103145760006104658b8984815181106101bb57634e487b7160e01b600052603260045260246000fd5b604051637c26833760e11b81529091506001600160a01b0387169063f84d066e9061049b9060019085908a90899060040161095e565b600060405180830381600087803b1580156104b557600080fd5b505af19250505080156104ea57506040513d6000823e601f3d908101601f191682016040526104e79190810190610721565b60015b610518573d80801561027b576040519150601f19603f3d011682016040523d82523d6000602084013e610280565b60008160008151811061053b57634e487b7160e01b600052603260045260246000fd5b602002602001015190506000811361055557505050610314565b8089858151811061057657634e487b7160e01b600052603260045260246000fd5b6020026020010181815250505050508061058f81610b93565b915050610437565b806001600160a01b0316826001600160a01b031614156105d25760405162461bcd60e51b81526004016105c990610a76565b60405180910390fd5b5050565b6105de6106ac565b50604080516080810182523080825260006020830181905292820152606081019190915290565b60408051600180825281830190925260609160009190816020015b6106286106d3565b8152602001906001900390816106205790505090506040518060a00160405280856000015181526020016000815260200160018152602001848152602001604051806020016040528060008152508152508160008151811061069a57634e487b7160e01b600052603260045260246000fd5b60209081029190910101529392505050565b60408051608081018252600080825260208201819052918101829052606081019190915290565b6040518060a0016040528060008019168152602001600081526020016000815260200160008152602001606081525090565b80356001600160a01b038116811461071c57600080fd5b919050565b60006020808385031215610733578182fd5b825167ffffffffffffffff811115610749578283fd5b8301601f81018513610759578283fd5b805161076c61076782610aec565b610abb565b8181528381019083850185840285018601891015610788578687fd5b8694505b838510156107aa57805183526001949094019391850191850161078c565b50979650505050505050565b60008060008084860360a08112156107cc578384fd5b60408112156107d9578384fd5b506107e46040610abb565b8535815260206107f5818801610705565b8183015281955061080860408801610705565b945061081660608801610705565b93506080870135915067ffffffffffffffff821115610833578283fd5b818701915087601f830112610846578283fd5b813561085461076782610aec565b81815282810190848401848402860185018c1015610870578687fd5b8695505b83861015610892578035835260019590950194918401918401610874565b50979a9699509497505050505050565b6000815180845260208085019450808401835b838110156108da5781516001600160a01b0316875295820195908201906001016108b5565b509495945050505050565b80516001600160a01b039081168352602080830151151590840152604080830151909116908301526060908101511515910152565b6020808252825182820181905260009190848201906040850190845b8181101561095257835183529284019291840191600101610936565b50909695505050505050565b600060e082016002871061098057634e487b7160e01b82526021600452602482fd5b868352602060e08185015281875180845261010093508386019150838382028701019350828901855b82811015610a465787860360ff190184528151805187528581015186880152604080820151908801526060808201519088015260809081015160a091880182905280519188018290529088905b80821015610a145782820188015189830160c00152908701906109f6565b80821115610a25578960c0828b0101525b601f01601f19169790970160c00196505092840192908401906001016109a9565b50505050508281036040840152610a5d81866108a2565b915050610a6d60608301846108e5565b95945050505050565b60208082526025908201527f455243323042726964676553616d706c65722f494e56414c49445f544f4b454e6040820152642fa820a4a960d91b606082015260800190565b604051601f8201601f1916810167ffffffffffffffff81118282101715610ae457610ae4610bc4565b604052919050565b600067ffffffffffffffff821115610b0657610b06610bc4565b5060209081020190565b60006001600160ff1b0381841382841380821686840486111615610b3657610b36610bae565b600160ff1b84871282811687830589121615610b5457610b54610bae565b858712925087820587128484161615610b6f57610b6f610bae565b87850587128184161615610b8557610b85610bae565b505050929093029392505050565b6000600019821415610ba757610ba7610bae565b5060010190565b634e487b7160e01b600052601160045260246000fd5b634e487b7160e01b600052604160045260246000fdfea26469706673582212204ffafc61471a5ca5b5b8458aa2753b640b53dacbc603fcfae995fae34742f45c64736f6c63430008010033",
  "linkReferences": {},
  "deployedLinkReferences": {}
}