{
  "_format": "hh-sol-artifact-1",
  "contractName": "BalancerSampler",
  "sourceName": "contracts/sampler/BalancerSampler.sol",
  "abi": [
    {
      "inputs": [
        {
          "internalType": "address",
          "name": "poolAddress",
          "type": "address"
        },
        {
          "internalType": "address",
          "name": "takerToken",
          "type": "address"
        },
        {
          "internalType": "address",
          "name": "makerToken",
          "type": "address"
        },
        {
          "internalType": "uint256[]",
          "name": "makerTokenAmounts",
          "type": "uint256[]"
        }
      ],
      "name": "sampleBuysFromBalancer",
      "outputs": [
        {
          "internalType": "uint256[]",
          "name": "takerTokenAmounts",
          "type": "uint256[]"
        }
      ],
      "stateMutability": "view",
      "type": "function"
    },
    {
      "inputs": [
        {
          "internalType": "address",
          "name": "poolAddress",
          "type": "address"
        },
        {
          "internalType": "address",
          "name": "takerToken",
          "type": "address"
        },
        {
          "internalType": "address",
          "name": "makerToken",
          "type": "address"
        },
        {
          "internalType": "uint256[]",
          "name": "takerTokenAmounts",
          "type": "uint256[]"
        }
      ],
      "name": "sampleSellsFromBalancer",
      "outputs": [
        {
          "internalType": "uint256[]",
          "name": "makerTokenAmounts",
          "type": "uint256[]"
        }
      ],
      "stateMutability": "view",
      "type": "function"
    }
  ],
  "bytecode": "0x608060405234801561001057600080fd5b50610f6e806100206000396000f3fe608060405234801561001057600080fd5b50600436106100365760003560e01c806357494b1d1461003b5780639877774814610064575b600080fd5b61004e610049366004610cea565b610077565b60405161005b9190610e2e565b60405180910390f35b61004e610072366004610cea565b61066f565b805160609085908067ffffffffffffffff8111156100a557634e487b7160e01b600052604160045260246000fd5b6040519080825280602002602001820160405280156100ce578160200160208202803683370190505b50604051630bcded8960e21b81529093506001600160a01b03831690632f37b624906100fe908990600401610e1a565b60206040518083038186803b15801561011657600080fd5b505afa15801561012a573d6000803e3d6000fd5b505050506040513d601f19601f8201168201806040525081019061014e9190610ddb565b15806101d35750604051630bcded8960e21b81526001600160a01b03831690632f37b62490610181908890600401610e1a565b60206040518083038186803b15801561019957600080fd5b505afa1580156101ad573d6000803e3d6000fd5b505050506040513d601f19601f820116820180604052508101906101d19190610ddb565b155b156101df575050610667565b6101e7610c9f565b60405163f8b2cb4f60e01b81526001600160a01b0384169063f8b2cb4f90610213908a90600401610e1a565b60206040518083038186803b15801561022b57600080fd5b505afa15801561023f573d6000803e3d6000fd5b505050506040513d601f19601f820116820180604052508101906102639190610e02565b815260405163f8b2cb4f60e01b81526001600160a01b0384169063f8b2cb4f90610291908990600401610e1a565b60206040518083038186803b1580156102a957600080fd5b505afa1580156102bd573d6000803e3d6000fd5b505050506040513d601f19601f820116820180604052508101906102e19190610e02565b6020820152604051634a46c67360e11b81526001600160a01b0384169063948d8ce690610312908a90600401610e1a565b60206040518083038186803b15801561032a57600080fd5b505afa15801561033e573d6000803e3d6000fd5b505050506040513d601f19601f820116820180604052508101906103629190610e02565b60408083019190915251634a46c67360e11b81526001600160a01b0384169063948d8ce690610395908990600401610e1a565b60206040518083038186803b1580156103ad57600080fd5b505afa1580156103c1573d6000803e3d6000fd5b505050506040513d601f19601f820116820180604052508101906103e59190610e02565b816060018181525050826001600160a01b031663d4cadf686040518163ffffffff1660e01b815260040160206040518083038186803b15801561042757600080fd5b505afa15801561043b573d6000803e3d6000fd5b505050506040513d601f19601f8201168201806040525081019061045f9190610e02565b608082015260005b8281101561066257602082015161049b9061048b6003670de0b6b3a7640000610eb2565b610496906001610e9a565b610c15565b8682815181106104bb57634e487b7160e01b600052603260045260246000fd5b602002602001015111156104ce57610662565b836001600160a01b031663f8d6aed4620493e084600001518560400151866020015187606001518c888151811061051557634e487b7160e01b600052603260045260246000fd5b602002602001015189608001516040518863ffffffff1660e01b815260040161054396959493929190610e72565b60206040518083038187803b15801561055b57600080fd5b5086fa9350505050801561058c575060408051601f3d908101601f1916820190925261058991810190610e02565b60015b6105c6573d8080156105ba576040519150601f19603f3d011682016040523d82523d6000602084013e6105bf565b606091505b5050610662565b82516105df906104966002670de0b6b3a7640000610eb2565b8111156105ec5750610662565b8086838151811061060d57634e487b7160e01b600052603260045260246000fd5b60200260200101818152505085828151811061063957634e487b7160e01b600052603260045260246000fd5b60200260200101516000141561064f5750610662565b508061065a81610ef1565b915050610467565b505050505b949350505050565b805160609085908067ffffffffffffffff81111561069d57634e487b7160e01b600052604160045260246000fd5b6040519080825280602002602001820160405280156106c6578160200160208202803683370190505b50604051630bcded8960e21b81529093506001600160a01b03831690632f37b624906106f6908990600401610e1a565b60206040518083038186803b15801561070e57600080fd5b505afa158015610722573d6000803e3d6000fd5b505050506040513d601f19601f820116820180604052508101906107469190610ddb565b15806107cb5750604051630bcded8960e21b81526001600160a01b03831690632f37b62490610779908890600401610e1a565b60206040518083038186803b15801561079157600080fd5b505afa1580156107a5573d6000803e3d6000fd5b505050506040513d601f19601f820116820180604052508101906107c99190610ddb565b155b156107d7575050610667565b6107df610c9f565b60405163f8b2cb4f60e01b81526001600160a01b0384169063f8b2cb4f9061080b908a90600401610e1a565b60206040518083038186803b15801561082357600080fd5b505afa158015610837573d6000803e3d6000fd5b505050506040513d601f19601f8201168201806040525081019061085b9190610e02565b815260405163f8b2cb4f60e01b81526001600160a01b0384169063f8b2cb4f90610889908990600401610e1a565b60206040518083038186803b1580156108a157600080fd5b505afa1580156108b5573d6000803e3d6000fd5b505050506040513d601f19601f820116820180604052508101906108d99190610e02565b6020820152604051634a46c67360e11b81526001600160a01b0384169063948d8ce69061090a908a90600401610e1a565b60206040518083038186803b15801561092257600080fd5b505afa158015610936573d6000803e3d6000fd5b505050506040513d601f19601f8201168201806040525081019061095a9190610e02565b60408083019190915251634a46c67360e11b81526001600160a01b0384169063948d8ce69061098d908990600401610e1a565b60206040518083038186803b1580156109a557600080fd5b505afa1580156109b9573d6000803e3d6000fd5b505050506040513d601f19601f820116820180604052508101906109dd9190610e02565b816060018181525050826001600160a01b031663d4cadf686040518163ffffffff1660e01b815260040160206040518083038186803b158015610a1f57600080fd5b505afa158015610a33573d6000803e3d6000fd5b505050506040513d601f19601f82011682018060405250810190610a579190610e02565b608082015260005b82811015610662578151610a80906104966002670de0b6b3a7640000610eb2565b868281518110610aa057634e487b7160e01b600052603260045260246000fd5b60200260200101511115610ab357610662565b836001600160a01b031663ba9530a6620493e084600001518560400151866020015187606001518c8881518110610afa57634e487b7160e01b600052603260045260246000fd5b602002602001015189608001516040518863ffffffff1660e01b8152600401610b2896959493929190610e72565b60206040518083038187803b158015610b4057600080fd5b5086fa93505050508015610b71575060408051601f3d908101601f19168201909252610b6e91810190610e02565b60015b610b9f573d8080156105ba576040519150601f19603f3d011682016040523d82523d6000602084013e6105bf565b80868381518110610bc057634e487b7160e01b600052603260045260246000fd5b602002602001018181525050858281518110610bec57634e487b7160e01b600052603260045260246000fd5b602002602001015160001415610c025750610662565b5080610c0d81610ef1565b915050610a5f565b600080610c228385610ed2565b90508315801590610c3c575082610c398583610eb2565b14155b15610c4b576000915050610c99565b6000610c606002670de0b6b3a7640000610eb2565b610c6a9083610e9a565b905081811015610c7f57600092505050610c99565b6000610c93670de0b6b3a764000083610eb2565b93505050505b92915050565b6040518060a0016040528060008152602001600081526020016000815260200160008152602001600081525090565b80356001600160a01b0381168114610ce557600080fd5b919050565b60008060008060808587031215610cff578384fd5b610d0885610cce565b93506020610d17818701610cce565b9350610d2560408701610cce565b9250606086013567ffffffffffffffff80821115610d41578384fd5b818801915088601f830112610d54578384fd5b813581811115610d6657610d66610f22565b838102604051601f19603f83011681018181108582111715610d8a57610d8a610f22565b604052828152858101935084860182860187018d1015610da8578788fd5b8795505b83861015610dca578035855260019590950194938601938601610dac565b50989b979a50959850505050505050565b600060208284031215610dec578081fd5b81518015158114610dfb578182fd5b9392505050565b600060208284031215610e13578081fd5b5051919050565b6001600160a01b0391909116815260200190565b6020808252825182820181905260009190848201906040850190845b81811015610e6657835183529284019291840191600101610e4a565b50909695505050505050565b958652602086019490945260408501929092526060840152608083015260a082015260c00190565b60008219821115610ead57610ead610f0c565b500190565b600082610ecd57634e487b7160e01b81526012600452602481fd5b500490565b6000816000190483118215151615610eec57610eec610f0c565b500290565b6000600019821415610f0557610f05610f0c565b5060010190565b634e487b7160e01b600052601160045260246000fd5b634e487b7160e01b600052604160045260246000fdfea2646970667358221220e4f927505c2202805c023a9f6b8f8de4d18b84ca025e8288c5c35e1ef5170eae64736f6c63430008010033",
  "linkReferences": {},
  "deployedLinkReferences": {}
}